{
  "_format": "hh-sol-artifact-1",
  "contractName": "MatchUpGame",
  "sourceName": "contracts/MatchUp.sol",
  "abi": [
    {
      "anonymous": false,
      "inputs": [
        {
          "indexed": true,
          "internalType": "address",
          "name": "user",
          "type": "address"
        },
        {
          "indexed": false,
          "internalType": "uint256",
          "name": "date",
          "type": "uint256"
        },
        {
          "indexed": false,
          "internalType": "uint8",
          "name": "difficulty",
          "type": "uint8"
        },
        {
          "indexed": false,
          "internalType": "uint256",
          "name": "pointsEarned",
          "type": "uint256"
        }
      ],
      "name": "DailyChallengeCompleted",
      "type": "event"
    },
    {
      "anonymous": false,
      "inputs": [
        {
          "indexed": true,
          "internalType": "address",
          "name": "user",
          "type": "address"
        },
        {
          "indexed": false,
          "internalType": "string",
          "name": "newDisplayName",
          "type": "string"
        }
      ],
      "name": "DisplayNameUpdated",
      "type": "event"
    },
    {
      "anonymous": false,
      "inputs": [
        {
          "indexed": true,
          "internalType": "address",
          "name": "user",
          "type": "address"
        },
        {
          "indexed": false,
          "internalType": "uint256",
          "name": "gameId",
          "type": "uint256"
        },
        {
          "indexed": false,
          "internalType": "bool",
          "name": "won",
          "type": "bool"
        },
        {
          "indexed": false,
          "internalType": "uint8",
          "name": "difficulty",
          "type": "uint8"
        },
        {
          "indexed": false,
          "internalType": "uint256",
          "name": "timeSpent",
          "type": "uint256"
        },
        {
          "indexed": false,
          "internalType": "uint256",
          "name": "pointsEarned",
          "type": "uint256"
        }
      ],
      "name": "GameCompleted",
      "type": "event"
    },
    {
      "anonymous": false,
      "inputs": [
        {
          "indexed": true,
          "internalType": "address",
          "name": "user",
          "type": "address"
        },
        {
          "indexed": false,
          "internalType": "string",
          "name": "displayName",
          "type": "string"
        }
      ],
      "name": "UserRegistered",
      "type": "event"
    },
    {
      "inputs": [],
      "name": "DAILY_MULTIPLIER",
      "outputs": [
        {
          "internalType": "uint256",
          "name": "",
          "type": "uint256"
        }
      ],
      "stateMutability": "view",
      "type": "function"
    },
    {
      "inputs": [],
      "name": "EASY_POINTS",
      "outputs": [
        {
          "internalType": "uint256",
          "name": "",
          "type": "uint256"
        }
      ],
      "stateMutability": "view",
      "type": "function"
    },
    {
      "inputs": [],
      "name": "HARD_POINTS",
      "outputs": [
        {
          "internalType": "uint256",
          "name": "",
          "type": "uint256"
        }
      ],
      "stateMutability": "view",
      "type": "function"
    },
    {
      "inputs": [],
      "name": "MEDIUM_POINTS",
      "outputs": [
        {
          "internalType": "uint256",
          "name": "",
          "type": "uint256"
        }
      ],
      "stateMutability": "view",
      "type": "function"
    },
    {
      "inputs": [
        {
          "internalType": "address",
          "name": "",
          "type": "address"
        },
        {
          "internalType": "uint256",
          "name": "",
          "type": "uint256"
        }
      ],
      "name": "dailyChallenges",
      "outputs": [
        {
          "internalType": "uint256",
          "name": "date",
          "type": "uint256"
        },
        {
          "internalType": "uint8",
          "name": "difficulty",
          "type": "uint8"
        },
        {
          "internalType": "bool",
          "name": "completed",
          "type": "bool"
        },
        {
          "internalType": "uint256",
          "name": "pointsEarned",
          "type": "uint256"
        },
        {
          "internalType": "uint256",
          "name": "completedAt",
          "type": "uint256"
        }
      ],
      "stateMutability": "view",
      "type": "function"
    },
    {
      "inputs": [
        {
          "internalType": "uint256",
          "name": "",
          "type": "uint256"
        }
      ],
      "name": "gameResults",
      "outputs": [
        {
          "internalType": "uint256",
          "name": "gameId",
          "type": "uint256"
        },
        {
          "internalType": "address",
          "name": "player",
          "type": "address"
        },
        {
          "internalType": "bool",
          "name": "won",
          "type": "bool"
        },
        {
          "internalType": "uint8",
          "name": "difficulty",
          "type": "uint8"
        },
        {
          "internalType": "uint256",
          "name": "timeSpent",
          "type": "uint256"
        },
        {
          "internalType": "uint256",
          "name": "pointsEarned",
          "type": "uint256"
        },
        {
          "internalType": "uint256",
          "name": "timestamp",
          "type": "uint256"
        },
        {
          "internalType": "bool",
          "name": "isDailyChallenge",
          "type": "bool"
        }
      ],
      "stateMutability": "view",
      "type": "function"
    },
    {
      "inputs": [],
      "name": "getCurrentDate",
      "outputs": [
        {
          "internalType": "uint256",
          "name": "",
          "type": "uint256"
        }
      ],
      "stateMutability": "view",
      "type": "function"
    },
    {
      "inputs": [
        {
          "internalType": "uint256",
          "name": "_limit",
          "type": "uint256"
        }
      ],
      "name": "getLeaderboard",
      "outputs": [
        {
          "internalType": "address[]",
          "name": "",
          "type": "address[]"
        },
        {
          "internalType": "uint256[]",
          "name": "",
          "type": "uint256[]"
        }
      ],
      "stateMutability": "view",
      "type": "function"
    },
    {
      "inputs": [],
      "name": "getTotalGames",
      "outputs": [
        {
          "internalType": "uint256",
          "name": "",
          "type": "uint256"
        }
      ],
      "stateMutability": "view",
      "type": "function"
    },
    {
      "inputs": [],
      "name": "getTotalUsers",
      "outputs": [
        {
          "internalType": "uint256",
          "name": "",
          "type": "uint256"
        }
      ],
      "stateMutability": "view",
      "type": "function"
    },
    {
      "inputs": [
        {
          "internalType": "address",
          "name": "_user",
          "type": "address"
        }
      ],
      "name": "getUser",
      "outputs": [
        {
          "components": [
            {
              "internalType": "string",
              "name": "displayName",
              "type": "string"
            },
            {
              "internalType": "uint256",
              "name": "totalPoints",
              "type": "uint256"
            },
            {
              "internalType": "uint256",
              "name": "gamesPlayed",
              "type": "uint256"
            },
            {
              "internalType": "uint256",
              "name": "gamesWon",
              "type": "uint256"
            },
            {
              "internalType": "uint256",
              "name": "bestTime",
              "type": "uint256"
            },
            {
              "internalType": "uint256",
              "name": "joinedAt",
              "type": "uint256"
            },
            {
              "internalType": "uint256",
              "name": "lastGameAt",
              "type": "uint256"
            },
            {
              "internalType": "bool",
              "name": "exists",
              "type": "bool"
            }
          ],
          "internalType": "struct MatchUpGame.User",
          "name": "",
          "type": "tuple"
        }
      ],
      "stateMutability": "view",
      "type": "function"
    },
    {
      "inputs": [
        {
          "internalType": "address",
          "name": "_user",
          "type": "address"
        },
        {
          "internalType": "uint256",
          "name": "_offset",
          "type": "uint256"
        },
        {
          "internalType": "uint256",
          "name": "_limit",
          "type": "uint256"
        }
      ],
      "name": "getUserGames",
      "outputs": [
        {
          "components": [
            {
              "internalType": "uint256",
              "name": "gameId",
              "type": "uint256"
            },
            {
              "internalType": "address",
              "name": "player",
              "type": "address"
            },
            {
              "internalType": "bool",
              "name": "won",
              "type": "bool"
            },
            {
              "internalType": "uint8",
              "name": "difficulty",
              "type": "uint8"
            },
            {
              "internalType": "uint256",
              "name": "timeSpent",
              "type": "uint256"
            },
            {
              "internalType": "uint256",
              "name": "pointsEarned",
              "type": "uint256"
            },
            {
              "internalType": "uint256",
              "name": "timestamp",
              "type": "uint256"
            },
            {
              "internalType": "bool",
              "name": "isDailyChallenge",
              "type": "bool"
            }
          ],
          "internalType": "struct MatchUpGame.GameResult[]",
          "name": "",
          "type": "tuple[]"
        }
      ],
      "stateMutability": "view",
      "type": "function"
    },
    {
      "inputs": [
        {
          "internalType": "address",
          "name": "_user",
          "type": "address"
        }
      ],
      "name": "getUserRank",
      "outputs": [
        {
          "internalType": "uint256",
          "name": "",
          "type": "uint256"
        }
      ],
      "stateMutability": "view",
      "type": "function"
    },
    {
      "inputs": [
        {
          "internalType": "address",
          "name": "_user",
          "type": "address"
        },
        {
          "internalType": "uint256",
          "name": "_date",
          "type": "uint256"
        }
      ],
      "name": "isDailyChallengeCompleted",
      "outputs": [
        {
          "internalType": "bool",
          "name": "",
          "type": "bool"
        }
      ],
      "stateMutability": "view",
      "type": "function"
    },
    {
      "inputs": [
        {
          "internalType": "bool",
          "name": "_won",
          "type": "bool"
        },
        {
          "internalType": "uint8",
          "name": "_difficulty",
          "type": "uint8"
        },
        {
          "internalType": "uint256",
          "name": "_timeSpent",
          "type": "uint256"
        },
        {
          "internalType": "bool",
          "name": "_isDailyChallenge",
          "type": "bool"
        }
      ],
      "name": "recordGame",
      "outputs": [],
      "stateMutability": "nonpayable",
      "type": "function"
    },
    {
      "inputs": [
        {
          "internalType": "string",
          "name": "_displayName",
          "type": "string"
        }
      ],
      "name": "registerUser",
      "outputs": [],
      "stateMutability": "nonpayable",
      "type": "function"
    },
    {
      "inputs": [],
      "name": "totalGames",
      "outputs": [
        {
          "internalType": "uint256",
          "name": "",
          "type": "uint256"
        }
      ],
      "stateMutability": "view",
      "type": "function"
    },
    {
      "inputs": [],
      "name": "totalUsers",
      "outputs": [
        {
          "internalType": "uint256",
          "name": "",
          "type": "uint256"
        }
      ],
      "stateMutability": "view",
      "type": "function"
    },
    {
      "inputs": [
        {
          "internalType": "uint256",
          "name": "",
          "type": "uint256"
        }
      ],
      "name": "userAddresses",
      "outputs": [
        {
          "internalType": "address",
          "name": "",
          "type": "address"
        }
      ],
      "stateMutability": "view",
      "type": "function"
    },
    {
      "inputs": [
        {
          "internalType": "address",
          "name": "",
          "type": "address"
        },
        {
          "internalType": "uint256",
          "name": "",
          "type": "uint256"
        }
      ],
      "name": "userGameIds",
      "outputs": [
        {
          "internalType": "uint256",
          "name": "",
          "type": "uint256"
        }
      ],
      "stateMutability": "view",
      "type": "function"
    },
    {
      "inputs": [
        {
          "internalType": "address",
          "name": "",
          "type": "address"
        }
      ],
      "name": "users",
      "outputs": [
        {
          "internalType": "string",
          "name": "displayName",
          "type": "string"
        },
        {
          "internalType": "uint256",
          "name": "totalPoints",
          "type": "uint256"
        },
        {
          "internalType": "uint256",
          "name": "gamesPlayed",
          "type": "uint256"
        },
        {
          "internalType": "uint256",
          "name": "gamesWon",
          "type": "uint256"
        },
        {
          "internalType": "uint256",
          "name": "bestTime",
          "type": "uint256"
        },
        {
          "internalType": "uint256",
          "name": "joinedAt",
          "type": "uint256"
        },
        {
          "internalType": "uint256",
          "name": "lastGameAt",
          "type": "uint256"
        },
        {
          "internalType": "bool",
          "name": "exists",
          "type": "bool"
        }
      ],
      "stateMutability": "view",
      "type": "function"
    }
  ],
  "bytecode": "0x608060405234801561001057600080fd5b506119fc806100206000396000f3fe608060405234801561001057600080fd5b50600436106101375760003560e01c80639254d772116100b8578063bff1f9e11161007c578063bff1f9e114610291578063cc7267281461029a578063cf93d48b146102a2578063d3be4fe31461031d578063f0c5bb6c14610330578063fdba1b7c1461033857600080fd5b80639254d772146102265780639be572f61461022e578063a34b46fe14610236578063a87430ba14610257578063b2d1573f1461027e57600080fd5b8063538585a5116100ff578063538585a5146101ce5780635bd4349b146101e35780636d560989146101eb5780636f77926b146101f3578063704f1b941461021357600080fd5b806307d8b2421461013c57806327bb4007146101575780632c4e591b1461017a578063502c9bd5146101835780635310fcb8146101ae575b600080fd5b610144606481565b6040519081526020015b60405180910390f35b61016a6101653660046113a8565b6103e6565b604051901515815260200161014e565b61014460055481565b6101966101913660046113d2565b61041c565b6040516001600160a01b03909116815260200161014e565b6101c16101bc3660046113eb565b610446565b60405161014e919061141e565b6101e16101dc3660046114cb565b61069a565b005b600554610144565b610144600281565b610206610201366004611520565b610a8e565b60405161014e9190611588565b6101e1610221366004611611565b610bdf565b610144610e39565b600654610144565b6102496102443660046113d2565b610ee3565b60405161014e9291906116c2565b61026a610265366004611520565b611190565b60405161014e989796959493929190611746565b61014461028c366004611520565b61125d565b61014460065481565b610144609681565b6102ed6102b03660046113a8565b600260208181526000938452604080852090915291835291208054600182015492820154600390920154909260ff80821693610100909204169185565b6040805195865260ff9094166020860152911515928401929092526060830191909152608082015260a00161014e565b61014461032b3660046113a8565b61135b565b610144603281565b6103996103463660046113d2565b60016020819052600091825260409091208054918101546002820154600383015460048401546005909401546001600160a01b0384169460ff600160a01b8604811695600160a81b900481169493921688565b604080519889526001600160a01b0390971660208901529415159587019590955260ff9092166060860152608085015260a084015260c0830191909152151560e08201526101000161014e565b6001600160a01b0382166000908152600260209081526040808320848452909152902060010154610100900460ff165b92915050565b6004818154811061042c57600080fd5b6000918252602090912001546001600160a01b0316905081565b6001600160a01b03831660009081526003602090815260408083208054825181850281018501909352808352606094938301828280156104a557602002820191906000526020600020905b815481526020019060010190808311610491575b50505050509050805184106104f85760405162461bcd60e51b81526020600482015260146024820152734f6666736574206f7574206f6620626f756e647360601b60448201526064015b60405180910390fd5b600061050484866117a9565b90508151811115610513575080515b600061051f86836117bc565b67ffffffffffffffff811115610537576105376115fb565b6040519080825280602002602001820160405280156105a657816020015b604080516101008101825260008082526020808301829052928201819052606082018190526080820181905260a0820181905260c0820181905260e082015282526000199092019101816105555790505b509050855b8281101561068f57600160008583815181106105c9576105c96117cf565b60209081029190910181015182528181019290925260409081016000208151610100810183528154815260018201546001600160a01b0381169482019490945260ff600160a01b85048116151593820193909352600160a81b9093048216606084015260028101546080840152600381015460a0840152600481015460c08401526005015416151560e08201528261066189846117bc565b81518110610671576106716117cf565b60200260200101819052508080610687906117e5565b9150506105ab565b509695505050505050565b3360009081526020819052604090206007015460ff166106f25760405162461bcd60e51b8152602060048201526013602482015272155cd95c881b9bdd081c9959da5cdd195c9959606a1b60448201526064016104ef565b8260028160ff1611156107475760405162461bcd60e51b815260206004820152601860248201527f496e76616c696420646966666963756c7479206c6576656c000000000000000060448201526064016104ef565b60058054906000610757836117e5565b9190505550600085156107a2578460ff166000036107775750603261078e565b8460ff1660010361078a5750606461078e565b5060965b82156107a25761079f6002826117fe565b90505b33600090815260208190526040812060028101805491926107c2836117e5565b9091555050426006820155861561082e576003810180549060006107e5836117e5565b9190505550818160010160008282546107fe91906117a9565b909155505084158015906108215750600481015415806108215750806004015485105b1561082e57600481018590555b60006040518061010001604052806005548152602001336001600160a01b0316815260200189151581526020018860ff16815260200189610870576000610872565b875b81526020808201869052426040808401919091528815156060938401526005805460009081526001808552838220875181558786015181830180548a880151998b015160ff16600160a81b0260ff60a81b199a1515600160a01b026001600160a81b03199092166001600160a01b03909416939093171798909816179096556080870151600287015560a087015160038088019190915560c0880151600488015560e0880151968401805497151560ff19909816979097179096553382529484529182209054815494850182559082529190209091015590508780156109555750845b15610a2d576000610964610e39565b6040805160a08101825282815260ff8b81166020808401828152600185870181815260608088018e81524260808a019081523360008181526002808a528d82208f83528a52908d90209b518c559651958b018054955115156101000261ffff1990961696909a1695909517939093179097559551928701929092559051600390950194909455845186815290810191909152928301889052929350917fffbc74b760dd8efb1eb0b3d18c35e11141dcd524119247a9686dc4061b8fe0ed910160405180910390a2505b60055460408051918252891515602083015260ff891690820152606081018790526080810184905233907fd440e3fa4c743a818b6ffdd77fd39c36998cadec9e80697c2ce8abd700051b089060a00160405180910390a25050505050505050565b610ad8604051806101000160405280606081526020016000815260200160008152602001600081526020016000815260200160008152602001600081526020016000151581525090565b6001600160a01b0382166000908152602081905260409081902081516101008101909252805482908290610b0b90611815565b80601f0160208091040260200160405190810160405280929190818152602001828054610b3790611815565b8015610b845780601f10610b5957610100808354040283529160200191610b84565b820191906000526020600020905b815481529060010190602001808311610b6757829003601f168201915b505050918352505060018201546020820152600282015460408201526003820154606082015260048201546080820152600582015460a0820152600682015460c082015260079091015460ff16151560e09091015292915050565b6000815111610c305760405162461bcd60e51b815260206004820152601c60248201527f446973706c6179206e616d652063616e6e6f7420626520656d7074790000000060448201526064016104ef565b603281511115610c7a5760405162461bcd60e51b8152602060048201526015602482015274446973706c6179206e616d6520746f6f206c6f6e6760581b60448201526064016104ef565b3360009081526020819052604090206007015460ff16610de65760408051610100810182528281526000602080830182905282840182905260608301829052608083018290524260a084015260c08301829052600160e08401523382528190529190912081518190610cec908261189e565b5060208201516001808301919091556040830151600283015560608301516003830155608083015160048084019190915560a0840151600584015560c084015160068085019190915560e0909401516007909301805493151560ff19909416939093179092558154908101825560009182527f8a35acfbc15ff81a39ae7d344fd709f28e8600b4aa8c65c6b64bfe7fe36bd19b0180546001600160a01b0319163317905581549190610d9d836117e5565b9190505550336001600160a01b03167f48cac28ad4dc618e15f4c2dd5e97751182f166de97b25618318b2112aa951a2f82604051610ddb919061195e565b60405180910390a250565b336000908152602081905260409020610dff828261189e565b50336001600160a01b03167f1e9bee8140e85de651adf10e9e40c4a2b2b5c1004c1c855aa7f29391a899c5a682604051610ddb919061195e565b600080610e496201518042611987565b90506107e86000610e5c61016d8461199b565b90506000610e6b601e83611987565b610e769060016117a9565b90506000610e85601e8461199b565b610e909060016117a9565b9050600c821115610ea057600c91505b601f811115610ead5750601f5b80610eb98360646117fe565b610ec5866127106117fe565b610ecf91906117a9565b610ed991906117a9565b9550505050505090565b606080600083118015610ef7575060648311155b610f335760405162461bcd60e51b815260206004820152600d60248201526c125b9d985b1a59081b1a5b5a5d609a1b60448201526064016104ef565b60008360065410610f445783610f48565b6006545b905060008167ffffffffffffffff811115610f6557610f656115fb565b604051908082528060200260200182016040528015610f8e578160200160208202803683370190505b50905060008267ffffffffffffffff811115610fac57610fac6115fb565b604051908082528060200260200182016040528015610fd5578160200160208202803683370190505b50905060005b60045481108015610feb57508681105b1561118457600060048281548110611005576110056117cf565b60009182526020808320909101546001600160a01b031680835290829052604090912060010154909150825b6000811180156110635750846110486001836117bc565b81518110611058576110586117cf565b602002602001015182115b156111135786811015611101578561107c6001836117bc565b8151811061108c5761108c6117cf565b60200260200101518682815181106110a6576110a66117cf565b6001600160a01b0390921660209283029190910190910152846110ca6001836117bc565b815181106110da576110da6117cf565b60200260200101518582815181106110f4576110f46117cf565b6020026020010181815250505b8061110b816119af565b915050611031565b8681101561116e578286828151811061112e5761112e6117cf565b60200260200101906001600160a01b031690816001600160a01b03168152505081858281518110611161576111616117cf565b6020026020010181815250505b505050808061117c906117e5565b915050610fdb565b50909590945092505050565b6000602081905290815260409020805481906111ab90611815565b80601f01602080910402602001604051908101604052809291908181526020018280546111d790611815565b80156112245780601f106111f957610100808354040283529160200191611224565b820191906000526020600020905b81548152906001019060200180831161120757829003601f168201915b50505050600183015460028401546003850154600486015460058701546006880154600790980154969794969395509193909260ff1688565b6001600160a01b03811660009081526020819052604081206007015460ff1661128857506000919050565b6001600160a01b0382166000908152602081905260408120600190810154915b60045481101561135357846001600160a01b0316600482815481106112cf576112cf6117cf565b6000918252602090912001546001600160a01b03161480159061132e57508260008060048481548110611304576113046117cf565b60009182526020808320909101546001600160a01b03168352820192909252604001902060010154115b15611341578161133d816117e5565b9250505b8061134b816117e5565b9150506112a8565b509392505050565b6003602052816000526040600020818154811061137757600080fd5b90600052602060002001600091509150505481565b80356001600160a01b03811681146113a357600080fd5b919050565b600080604083850312156113bb57600080fd5b6113c48361138c565b946020939093013593505050565b6000602082840312156113e457600080fd5b5035919050565b60008060006060848603121561140057600080fd5b6114098461138c565b95602085013595506040909401359392505050565b602080825282518282018190526000919060409081850190868401855b828110156114ae57815180518552868101516001600160a01b0316878601528581015115158686015260608082015160ff16908601526080808201519086015260a0808201519086015260c0808201519086015260e090810151151590850152610100909301929085019060010161143b565b5091979650505050505050565b803580151581146113a357600080fd5b600080600080608085870312156114e157600080fd5b6114ea856114bb565b9350602085013560ff8116811461150057600080fd5b925060408501359150611515606086016114bb565b905092959194509250565b60006020828403121561153257600080fd5b61153b8261138c565b9392505050565b6000815180845260005b818110156115685760208185018101518683018201520161154c565b506000602082860101526020601f19601f83011685010191505092915050565b60208152600082516101008060208501526115a7610120850183611542565b9150602085015160408501526040850151606085015260608501516080850152608085015160a085015260a085015160c085015260c085015160e085015260e0850151151581850152508091505092915050565b634e487b7160e01b600052604160045260246000fd5b60006020828403121561162357600080fd5b813567ffffffffffffffff8082111561163b57600080fd5b818401915084601f83011261164f57600080fd5b813581811115611661576116616115fb565b604051601f8201601f19908116603f01168101908382118183101715611689576116896115fb565b816040528281528760208487010111156116a257600080fd5b826020860160208301376000928101602001929092525095945050505050565b604080825283519082018190526000906020906060840190828701845b828110156117045781516001600160a01b0316845292840192908401906001016116df565b5050508381038285015284518082528583019183019060005b818110156117395783518352928401929184019160010161171d565b5090979650505050505050565b600061010080835261175a8184018c611542565b602084019a909a52505060408101969096526060860194909452608085019290925260a084015260c0830152151560e090910152919050565b634e487b7160e01b600052601160045260246000fd5b8082018082111561041657610416611793565b8181038181111561041657610416611793565b634e487b7160e01b600052603260045260246000fd5b6000600182016117f7576117f7611793565b5060010190565b808202811582820484141761041657610416611793565b600181811c9082168061182957607f821691505b60208210810361184957634e487b7160e01b600052602260045260246000fd5b50919050565b601f82111561189957600081815260208120601f850160051c810160208610156118765750805b601f850160051c820191505b8181101561189557828155600101611882565b5050505b505050565b815167ffffffffffffffff8111156118b8576118b86115fb565b6118cc816118c68454611815565b8461184f565b602080601f83116001811461190157600084156118e95750858301515b600019600386901b1c1916600185901b178555611895565b600085815260208120601f198616915b8281101561193057888601518255948401946001909101908401611911565b508582101561194e5787850151600019600388901b60f8161c191681555b5050505050600190811b01905550565b60208152600061153b6020830184611542565b634e487b7160e01b600052601260045260246000fd5b60008261199657611996611971565b500490565b6000826119aa576119aa611971565b500690565b6000816119be576119be611793565b50600019019056fea264697066735822122074bfb26375edac591720f45ce1f71a214ab48bc953478f9741b147b71e41288564736f6c63430008130033",
  "linkReferences": {},
  "deployedLinkReferences": {}
}